S01A000066696E616C5F7175657374696F6E6D61726B2E737265637E
S11300000C9464000C9481000C9481000C94A20163
S11300100C94E7010C9481000C9481000C948100F1
S11300200C9481000C9481000C9481000C94810048
S11300300C9481000C9481000C9481000C94810038
S11300400C9481000C9481000C9481000C94810028
S11300500C9481000C9481000C94FD00A8EA802A81
S11300600040000A510A084059551801111E111B7D
S1130070500B411B411F1101511F511B0000000077
S11300800880001A204000000000510F91394114EB
S11300909131411E410E411D500F8020101548869C
S11300A04014780570855115510E5195518E21904B
S11300B081205015484450C528C0282009504114B7
S11300C0208011110000001011241FBECFEFD4E0D6
S11300D0DEBFCDBF11E0A0E0B1E0E0E2FAE002C093
S11300E005900D92A430B107D9F722E0A4E0B1E065
S11300F001C01D92AE33B207E1F70E9484010C9453
S11301000E050C9400008FE08093E70087EB80934A
S1130110E50087E08093E600E4EEF0E080EC808385
S11301208081886080830895DC01E9E0F1E090E05B
S11301308FEF2D9136ED320F313528F4203209F44A
S1130140382F308303C0222329F080839F5F3196A8
S1130150943179F781E0973008F480E08093390195
S11301608AE08093070187E0890F2FEFE92FF0E001
S1130170E75FFE4F20839F5F9813F8CFE82FF0E0EE
S1130180E75FFE4F1082109208018093060181E020
S1130190809324010895A62FA695B0E0AB5DBE4FD1
S11301A08F3FF1F0E82FF0E0EE0FFF1FE45AFF4F0E
S11301B02591349117C0822F8F70552311F08295A9
S11301C0807F9C919423892B8C93329522952F7058
S11301D023273F70232715966A177B0761F7089535
S11301E020E030E0562F517060FF02C04FE001C0A4
S11301F040EFBD016C5E7F4FDECF1F920F920FB6B2
S11302000F9211242F933F934F935F936F937F9398
S11302108F939F93AF93BF93CF93EF93FF9380916B
S11302203901882309F442C080910701811104C077
S113023081E08093240104C081508093070136C07B
S1130240C0E0E0910801EC0F80910601E81738F056
S1130250F0E0E81BF109E75FFE4F808104C0F0E0A5
S1130260E75FFE4F80816C2F0E94CB00CF5FC630CA
S113027041F78091080191E0980F909308019091C3
S11302800601891303C081E08093080183E0809311
S1130290070110922401A5E2B1E0ECEEF0E08D91AB
S11302A08193E11581E0F807D1F705C0809124011D
S11302B0882389F3C5CFFF91EF91CF91BF91AF917F
S11302C09F918F917F916F915F914F913F912F916A
S11302D00F900FBE0F901F9018958AE084BD16BC36
S11302E087BD85B38823E9F314BC82E085BB0895F8
S11302F08AE084BD16BC8AE587BD85B38823E9F30B
S113030014BC82E085BB08950E94830082E084B916
S113031091E095B990936C0090E89DBB9AE090931E
S1130320B00093EF9093B3001092B20080937000EA
S11303307894D3E0C1E0D5B90E946D01C5B90E949B
S11303407801F9CF1F920F920FB60F9211242F93B9
S11303503F934F935F936F937F938F939F93AF9349
S1130360BF93EF93FF93809104019091050101964F
S1130370909305018093040180913D018F938091B6
S11303803C018F9380E091E09F938F938EE391E003
S11303909F938F930E9424028EE391E00E94940025
S11303A00F900F900F900F900F900F90FF91EF917F
S11303B0BF91AF919F918F917F916F915F914F9179
S11303C03F912F910F900FBE0F901F9018951F9281
S11303D00F920FB60F9211242F933F934F935F9375
S11303E08F939F9380913A0190913B010196909352
S11303F03B0180933A01883E9340D9F44091040133
S11304005091050128E532E0429FC001439F900DC1
S1130410529F900D112490933D0180933C011092C2
S11304203B0110923A011092B20010920501109211
S113043004019F918F915F914F913F912F910F9064
S11304400FBE0F901F901895AEE0B0E0EAE2F2E024
S11304500C94E5040D891E8986E08C831A83098334
S11304608FEF9FE79E838D83AE01475E5F4F6F8959
S1130470788DCE0101960E944602EF81F885E00F47
S1130480F11F10822E96E4E00C940105ABE0B0E07D
S1130490ECE4F2E00C94D7046C017B018A01FC01CA
S11304A017821682838181FFCCC1CE0101963C0163
S11304B0F6019381F70193FD859193FF81917F016B
S11304C0882309F4BAC1853239F493FD859193FFE9
S11304D081917F01853229F4B60190E00E943D04A8
S11304E0E7CF912C212C312CFFE1F315D8F08B327E
S11304F079F038F4803279F08332A1F4232D20612D
S11305001DC08D3261F0803369F4232D216016C043
S1130510832D8260382EE32DE4603E2E2AC0F32D15
S1130520F8601DC037FC2DC020ED280F2A3040F0A4
S11305308E32B9F436FC81C1232D2064322E19C0C9
S113054036FE06C08AE0989E200D1124922E11C01A
S1130550EAE02E9E200D1124222EF32DF0623F2E70
S113056008C08C3621F4832D8068382E02C088366A
S113057041F4F70193FD859193FF81917F018111EE
S1130580B3CF982F9F7D9554933028F40C5F1F4F61
S11305909FE399830DC0833631F0833771F083353F
S11305A009F059C021C0F801808189830E5F1F4F73
S11305B088248394912C530113C02801F2E04F0E38
S11305C0511CF801A080B18036FE03C0692D70E093
S11305D002C06FEF7FEFC5010E9432044C0182011B
S11305E0F32DFF773F2E16C0280122E0420E511C46
S11305F0F801A080B18036FE03C0692D70E002C00E
S11306006FEF7FEFC5010E9427044C01F32DF068C2
S11306103F2E820133FC1BC0822D90E08816990680
S1130620B0F4B60180E290E00E943D042A94F4CF35
S1130630F50137FC859137FE81915F01B60190E0A9
S11306400E943D0421102A9421E0821A9108811409
S1130650910471F7E8C0843611F0893641F5F80148
S113066037FE07C060817181828193810C5F1F4FC7
S113067008C060817181072E000C880B990B0E5FF6
S11306801F4FF32DFF763F2E97FF09C0909580955D
S1130690709561957F4F8F4F9F4FF0683F2E2AE0F2
S11306A030E0A3010E947904882E861845C085375E
S11306B031F4232D2F7EB22E2AE030E025C0932D75
S11306C0997FB92E8F36C1F018F4883579F0B5C00A
S11306D0803719F0883721F0B0C0E92FE061BE2ED1
S11306E0B4FE0DC0FB2DF460BF2E09C034FE0AC059
S11306F0292F2660B22E06C028E030E005C020E194
S113070030E002C020E132E0F801B7FE07C06081AA
S11307107181828193810C5F1F4F06C0608171815A
S113072080E090E00E5F1F4FA3010E947904882EA1
S11307308618FB2DFF773F2E36FE0DC0232D2E7F0E
S1130740A22E891458F434FE0BC032FC09C0832D48
S11307508E7EA82E05C0B82CA32C03C0B82C01C0D3
S1130760B92CA4FE0FC0FE01E80DF11D8081803379
S113077021F49A2D997EA92E09C0A2FE06C0B39435
S1130780B39404C08A2D867809F0B394A3FC11C0F5
S1130790A0FE06C0B21488F4280C922C9B180EC03C
S11307A0B21460F4B60180E290E00E943D04B39478
S11307B0F7CFB21418F42B1802C0982C212CA4FEE5
S11307C010C0B60180E390E00E943D04A2FE17C071
S11307D0A1FC03C088E790E002C088E590E0B60180
S11307E00CC08A2D867859F0A1FE02C08BE201C0AC
S11307F080E2A7FC8DE2B60190E00E943D048914DA
S113080038F4B60180E390E00E943D049A94F7CF57
S11308108A94F301E80DF11D8081B60190E00E94F5
S11308203D048110F5CF222009F442CEB60180E2C6
S113083090E00E943D042A94F6CFF60186819781C8
S113084002C08FEF9FEF2B96E2E10C94F304FC01BE
S11308500590615070400110D8F7809590958E0FE7
S11308609F1F0895FC016150704001900110D8F75A
S1130870809590958E0F9F1F08950F931F93CF938C
S1130880DF93FB01238121FD03C08FEF9FEF2CC079
S113089022FF16C0468157812481358142175307B0
S11308A044F4A081B1819D012F5F3F4F31832083A8
S11308B08C93268137812F5F3F4F3783268314C063
S11308C08B01EC01FB010084F185E02D0995892B56
S11308D0E1F6D80116968D919C911797019617967B
S11308E09C938E931697CE01DF91CF911F910F9118
S11308F00895FA01AA27283051F1203181F1E894B2
S11309006F936E7F6E5F7F4F8F4F9F4FAF4FB1E0FE
S11309103ED0B4E03CD0670F781F891F9A1FA11DF9
S1130920680F791F8A1F911DA11D6A0F711D811DFA
S1130930911DA11D20D009F468943F912AE0269FBF
S113094011243019305D3193DEF6CF010895462F1E
S11309504770405D4193B3E00FD0C9F7F6CF462FFF
S11309604F70405D4A3318F0495D31FD4052419368
S113097002D0A9F7EACFB4E0A69597958795779525
S11309806795BA95C9F700976105710508959B01AC
S1130990AC010A2E06945795479537952795BA9535
S11309A0C9F7620F731F841F951FA01D08952F920E
S11309B03F924F925F926F927F928F929F92AF92EB
S11309C0BF92CF92DF92EF92FF920F931F93CF9338
S11309D0DF93CDB7DEB7CA1BDB0B0FB6F894DEBFCF
S11309E00FBECDBF09942A88398848885F846E84F5
S11309F07D848C849B84AA84B984C884DF80EE803F
S1130A00FD800C811B81AA81B981CE0FD11D0FB647
S1130A10F894DEBF0FBECDBFED010895F894FFCF6B
S1070A202564000045
S9030000FC
