:100000000C9464000C9481000C9481000C944A02BE
:100010000C9481000C9481000C9481000C9481005C
:100020000C9481000C9481000C9481000C9481004C
:100030000C9481000C9481000C9481000C9481003C
:100040000C9481000C9481000C9481000C9481002C
:100050000C9481000C9481000C948A01A8EA802AF7
:100060000040000A510A084059551801111E111B81
:10007000500B411B411F1101511F511B000000007B
:100080000880001A204000000000510F91394114EF
:100090009131411E410E411D500F802010154886A0
:1000A0004014780570855115510E5195518E21904F
:1000B00081205015484450C528C0282009504114BB
:1000C000208011110000001011241FBECFEFD4E0DA
:1000D000DEBFCDBF11E0A0E0B1E0EEE2F5E002C08E
:1000E00005900D92A031B107D9F721E0A0E1B1E070
:1000F00001C01D92A434B207E1F70E9427020C94BC
:1001000095020C940000CF93DF93CDB7DEB787EE56
:1001100090E02FE0FC01208385EE90E027EBFC01CE
:10012000208386EE90E027E0FC01208384EE90E0BF
:1001300020ECFC01208384EE90E024EE30E0F90115
:1001400020812860FC0120830000DF91CF91089579
:10015000CF93DF9300D000D01F92CDB7DEB79D8341
:100160008C8319822DC08C819D819C012F5F3F4F14
:100170003D832C83FC0180818B838B818A3290F0BC
:100180008B818B3778F48981882F90E02B81203206
:1001900019F02B812A5201C02FEF8D5E9E4FFC017A
:1001A00020830BC08B81882379F08981882F90E090
:1001B0008D5E9E4F2FEFFC01208389818F5F8983A5
:1001C0008981843180F201C0000081E099819730FB
:1001D00008F480E0809343018AE0809311011A8241
:1001E0000EC0898191E0980F9983882F90E08D5EF1
:1001F0009E4F2FEFFC0120838A818F5F8A838A8143
:10020000873078F38981882F90E08D5E9E4FFC01C6
:1002100010821092120189818093100181E08093F5
:100220002E0100000F900F900F900F900F90DF9114
:10023000CF910895CF93DF93CDB7DEB72D970FB64B
:10024000F894DEBF0FBECDBF8C876D871A821982EE
:100250008D858695882F90E0815D9E4F9C838B8352
:100260008C858F3FB9F08C85882F90E0880F991F7F
:10027000845A9F4F9987888788859985FC012591A5
:100280003491CF013B872A87998788878A859B8508
:100290009A8389831D8231C080EF8E8389818F701C
:1002A0008F838D85882F90E081709927892B31F07D
:1002B0008FE08E838F818295807F8F838B819C815D
:1002C000FC0190818E8198238F81292F282B8B818F
:1002D0009C81FC01208389819A81929582958F70FF
:1002E00089279F7089279A8389838B819C810596B2
:1002F0009C838B838D818F5F8D838D81843060F2B1
:1003000000002D960FB6F894DEBF0FBECDBFDF9173
:10031000CF9108951F920F9200905F000F921124C9
:100320002F933F934F935F936F937F938F939F93FD
:10033000AF93BF93EF93FF93CF93DF9300D01F92C0
:10034000CDB7DEB780914301882369F08091110118
:10035000882321F481E080932E0105C08091110152
:1003600081508093110180912E01882309F441C0AE
:1003700019822AC0909112018981890F8A83809104
:1003800010019A81981788F08A81282F30E0809197
:100390001001882F90E0A901481B590BCA018D5EFE
:1003A0009E4FFC0180818A8308C08A81882F90E05B
:1003B0008D5E9E4FFC0180818A8369818A810E94C3
:1003C0001A0189818F5F89838981863098F28091B3
:1003D000120191E0980F90931201909110018917EA
:1003E00019F481E08093120183E08093110110924F
:1003F0002E011B8211C08B81882F90E084519F4F6A
:100400002B81222F30E0215D3E4FF9012081FC013C
:1004100020838B818F5F8B838B81843160F300001D
:100420000F900F900F90DF91CF91FF91EF91BF91BF
:10043000AF919F918F917F916F915F914F913F917C
:100440002F910F9000925F000F901F901895CF93FF
:10045000DF93CDB7DEB785E290E025E230E0F90129
:100460002081206DFC0120830E9483008CE690E0B7
:100470002CE630E0F9012081206DFC0120838DE322
:1004800090E02DE330E0F90120812068FC01208319
:100490007894FFCF1F920F9200905F000F9211246B
:1004A0002F933F934F935F936F937F938F939F937C
:1004B000AF93BF93EF93FF93CF93DF931F92CDB78B
:1004C000DEB783E290E0FC0180818095807D8983A6
:1004D0008981803129F480E091E00E94A80010C059
:1004E0008981803829F487E091E00E94A80008C043
:1004F0008981803429F48CE091E00E94A8000000FA
:100500000F90DF91CF91FF91EF91BF91AF919F91AC
:100510008F917F916F915F914F913F912F910F90AC
:0E05200000925F000F901F901895F894FFCF87
:10052E0043454E54455200444F574E00555000001F
:00000001FF
