:020000020000FC
:100000000FEF0BB904B915B948990E940E00499930
:100010000E9437004A990E945C00F6CF1FE315B991
:100020000E9481001CE015B90E94810015E715B9F6
:100030000E9481001DE515B90E9481001EE415B9DA
:100040000E9481001BE515B90E9481001AE715B9CD
:100050000E9481001DE015B90E9481001FE715B9BB
:100060000E9481001FE415B90E94810008951FE4D9
:1000700015B90E9481001CE015B90E9481001BE5A2
:1000800015B90E9481001FE315B90E9481001FE489
:1000900015B90E94810015E715B90E9481001DE085
:1000A00015B90E94810015E715B90E9481001DE075
:1000B00015B90E94810008951FE715B90E948100BB
:1000C00013E015B90E9481001FEE15B90E9481004E
:1000D00012E715B90E9481001EEB15B90E9481003C
:1000E00013E315B90E9481001FEB15B90E9481002E
:1000F00018E615B90E94810018E615B90E94810022
:10010000089540E258EC6AEF000000006A95E1F7BC
:0C0110005A95C9F74A95B1F7089572CFCF
:00000001FF
