S02500004C616246696E616C5F50726F626C656D355F45787472614372656469742E73726563E3
S11300000C9464000C9481000C944B030C940D0329
S11300100C9481000C9481000C9481000C94810058
S11300200C9481000C9481000C9481000C94810048
S11300300C9481000C9481000C9481000C94810038
S11300400C9481000C9481000C9481000C94810028
S11300500C9481000C9481000C948A01A8EA802AF3
S11300600040000A510A084059551801111E111B7D
S1130070500B411B411F1101511F511B0000000077
S11300800880001A204000000000510F91394114EB
S11300909131411E410E411D500F8020101548869C
S11300A04014780570855115510E5195518E21904B
S11300B081205015484450C528C0282009504114B7
S11300C0208011110000001011241FBECFEFD4E0D6
S11300D0DEBFCDBF11E0A0E0B1E0ECE0FFE002C084
S11300E005900D92A430B107D9F721E0A4E0B1E066
S11300F001C01D92AB33B207E1F70E9427020C94B2
S113010084070C940000CF93DF93CDB7DEB787EE5E
S113011090E02FE0FC01208385EE90E027EBFC01CA
S1130120208386EE90E027E0FC01208384EE90E0BB
S113013020ECFC01208384EE90E024EE30E0F90111
S113014020812860FC0120830000DF91CF91089575
S1130150CF93DF9300D000D01F92CDB7DEB79D833D
S11301608C8319822DC08C819D819C012F5F3F4F10
S11301703D832C83FC0180818B838B818A3290F0B8
S11301808B818B3778F48981882F90E02B81203202
S113019019F02B812A5201C02FEF895F9E4FFC0179
S11301A020830BC08B81882379F08981882F90E08C
S11301B0895F9E4F2FEFFC01208389818F5F8983A4
S11301C08981843180F201C0000081E099819730F7
S11301D008F480E0809337018AE0809305011A8255
S11301E00EC0898191E0980F9983882F90E0895FF0
S11301F09E4F2FEFFC0120838A818F5F8A838A813F
S1130200873078F38981882F90E0895F9E4FFC01C5
S113021010821092060189818093040181E0809309
S1130220220100000F900F900F900F900F90DF911C
S1130230CF910895CF93DF93CDB7DEB72D970FB647
S1130240F894DEBF0FBECDBF8C876D871A821982EA
S11302508D858695882F90E08D5D9E4F9C838B8342
S11302608C858F3FB9F08C85882F90E0880F991F7B
S1130270845A9F4F9987888788859985FC012591A1
S11302803491CF013B872A87998788878A859B8504
S11302909A8389831D8231C080EF8E8389818F7018
S11302A08F838D85882F90E081709927892B31F079
S11302B08FE08E838F818295807F8F838B819C8159
S11302C0FC0190818E8198238F81292F282B8B818B
S11302D09C81FC01208389819A81929582958F70FB
S11302E089279F7089279A8389838B819C810596AE
S11302F09C838B838D818F5F8D838D81843060F2AD
S113030000002D960FB6F894DEBF0FBECDBFDF916F
S1130310CF9108951F920F9200905F000F921124C5
S11303202F933F934F935F936F937F938F939F93F9
S1130330AF93BF93EF93FF93CF93DF9300D01F92BC
S1130340CDB7DEB780913701882369F0809105012C
S1130350882321F481E08093220105C08091050166
S113036081508093050180912201882309F441C0C2
S113037019822AC0909106018981890F8A8380910C
S113038004019A81981788F08A81282F30E080919F
S11303900401882F90E0A901481B590BCA01895F09
S11303A09E4FFC0180818A8308C08A81882F90E057
S11303B0895F9E4FFC0180818A8369818A810E94C2
S11303C01A0189818F5F89838981863098F28091AF
S11303D0060191E0980F909306019091040189170A
S11303E019F481E08093060183E080930501109263
S11303F022011B8211C08B81882F90E084519F4F72
S11304002B81222F30E02D5D3E4FF9012081FC012C
S113041020838B818F5F8B838B81843160F3000019
S11304200F900F900F90DF91CF91FF91EF91BF91BB
S1130430AF919F918F917F916F915F914F913F9178
S11304402F910F9000925F000F901F901895CF93FB
S1130450DF93CDB7DEB72E970FB6F894DEBF0FBE8D
S1130460CDBF0E94830085E290E025E230E0F901EF
S11304702081206DFC0120838DE290E0FC0110823C
S11304808EE290E02EE230E0F90120812C60FC0144
S113049020838BE690E02CE0FC0120838CE690E046
S11304A020EDFC0120838CE390E020ECFC01208310
S11304B08DE390E020ECFC0120838AE290E02FEFB2
S11304C0FC01208384E290E0FC0110827894109275
S11304D0390180913801882329F4809139018F5F93
S11304E08093390180E090E0AAE7B4E489839A8399
S11304F0AB83BC8320E030E04AE753E469817A812E
S11305008B819C810E940504DC01CB018D839E8339
S1130510AF83B88720E030E040E85FE36D817E81FF
S11305208F8198850E947F0388232CF481E090E0DA
S11305309A8789873FC020E03FEF4FE757E46D81FA
S11305407E818F8198850E94000418164CF520E066
S113055030E040E251E469817A818B819C810E9480
S11305600504DC01CB01BC01CD010E948403DC0144
S1130570CB019A8789870FC089E190E09C878B879C
S11305808B859C850197F1F79C878B8789859A8554
S113059001979A87898789859A85892B69F714C079
S11305A06D817E818F8198850E948403DC01CB015B
S11305B09A87898789859A859E878D878D859E856B
S11305C00197F1F79E878D8780913901882F90E0FC
S11305D0292F2F938F9380E091E0892F8F9380E0D0
S11305E091E08F938AE391E0892F8F938AE391E0DE
S11305F08F930E949A040F900F900F900F900F907A
S11306000F908AE391E00E94A8008091390184361A
S113061009F05FCF109239015CCF1F920F920090C6
S11306205F000F9211248F939F93EF93FF93CF93C7
S1130630DF93CDB7DEB783E290E0FC018081882FA1
S113064090E080749927892B19F41092380117C00F
S113065083E290E0FC018081882F90E080719927EB
S1130660892B21F481E08093380109C083E290E072
S1130670FC01808188231CF0109238010000DF9176
S1130680CF91FF91EF919F918F910F9000925F0016
S11306900F901F9018951F920F9200905F000F9279
S11306A011248F939F93EF93FF93CF93DF93CDB751
S11306B0DEB78CE290E0FC018081882F90E08870A6
S11306C09927892B19F4109238010DC08CE290E01F
S11306D0FC018081882F90E084709927892B19F47C
S11306E0109238010000DF91CF91FF91EF919F911B
S11306F08F910F9000925F000F901F9018950E94A9
S1130700B30308F481E008950E94DF0388F09F5743
S113071098F0B92F9927B751B0F0E1F0660F771F21
S1130720881F991F1AF0BA95C9F714C0B13091F017
S11307300E94F903B1E008950C94F903672F782F10
S11307408827B85F39F0B93FCCF3869577956795DC
S1130750B395D9F73EF490958095709561957F4F48
S11307608F4F9F4F0895990F0008550FAA0BE0E88B
S1130770FEEF16161706E807F907C0F0121613065F
S1130780E407F50798F0621B730B840B950B39F49F
S11307900A2661F0232B242B252B21F408950A2605
S11307A009F4A140A6958FEF811D811D089557FD81
S11307B09058440F551F59F05F3F71F04795880FCB
S11307C097FB991F61F09F3F79F087950895121662
S11307D013061406551FF2CF4695F1DF08C016160E
S11307E017061806991FF1CF8695710561050894BF
S11307F00895E894BB2766277727CB0197F90895D6
S11308000E94B30308F48FEF08950E9418040C9417
S113081089040E947B0438F00E94820420F095230E
S113082011F00C9472040C94780411240C94FA03BF
S11308300E94D70370F3959FC1F3950F50E0551FA5
S1130840629FF001729FBB27F00DB11D639FAA2721
S1130850F00DB11DAA1F649F6627B00DA11D661F70
S1130860829F2227B00DA11D621F739FB00DA11D91
S1130870621F839FA00D611D221F749F3327A00D4B
S1130880611D231F849F600D211D822F762F6A2FE7
S113089011249F5750409AF0F1F088234AF0EE0F4C
S11308A0FF1FBB1F661F771F881F91505040A9F779
S11308B09E3F510580F00C9472040C94FA035F3F40
S11308C0E4F3983ED4F3869577956795B795F795B5
S11308D0E7959F5FC1F7FE2B880F911D969587952D
S11308E097F9089597F99F6780E870E060E00895AC
S11308F09FEF80EC089500240A9416161706180634
S11309000906089500240A9412161306140605060F
S11309100895092E0394000C11F4882352F0BB0FA0
S113092040F4BF2B11F460FF04C06F5F7F4F8F4F03
S11309309F4F0895AEE0B0E0E0EAF4E00C945B076A
S11309400D891E8986E08C831A8309838FEF9FE7C4
S11309509E838D83AE01475E5F4F6F89788DCE0194
S113096001960E94BC04EF81F885E00FF11F10820C
S11309702E96E4E00C947707ABE0B0E0E2ECF4E010
S11309800C944D076C017B018A01FC0117821682CD
S1130990838181FFCCC1CE0101963C01F601938194
S11309A0F70193FD859193FF81917F01882309F4D9
S11309B0BAC1853239F493FD859193FF81917F010A
S11309C0853229F4B60190E00E94B306E7CF912C5A
S11309D0212C312CFFE1F315D8F08B3279F038F467
S11309E0803279F08332A1F4232D20611DC08D3231
S11309F061F0803369F4232D216016C0832D826059
S1130A00382EE32DE4603E2E2AC0F32DF8601DC07D
S1130A1037FC2DC020ED280F2A3040F08E32B9F477
S1130A2036FC81C1232D2064322E19C036FE06C047
S1130A308AE0989E200D1124922E11C0EAE02E9E89
S1130A40200D1124222EF32DF0623F2E08C08C3687
S1130A5021F4832D8068382E02C0883641F4F701D2
S1130A6093FD859193FF81917F018111B3CF982FDD
S1130A709F7D9554933028F40C5F1F4F9FE3998317
S1130A800DC0833631F0833771F0833509F059C0D6
S1130A9021C0F801808189830E5F1F4F88248394CD
S1130AA0912C530113C02801F2E04F0E511CF801A0
S1130AB0A080B18036FE03C0692D70E002C06FEFE4
S1130AC07FEFC5010E94A8064C018201F32DFF7738
S1130AD03F2E16C0280122E0420E511CF801A080CE
S1130AE0B18036FE03C0692D70E002C06FEF7FEF66
S1130AF0C5010E949D064C01F32DF0683F2E820132
S1130B0033FC1BC0822D90E088169906B0F4B60120
S1130B1080E290E00E94B3062A94F4CFF50137FCFA
S1130B20859137FE81915F01B60190E00E94B30682
S1130B3021102A9421E0821A91088114910471F7FA
S1130B40E8C0843611F0893641F5F80137FE07C054
S1130B5060817181828193810C5F1F4F08C0608125
S1130B607181072E000C880B990B0E5F1F4FF32D1C
S1130B70FF763F2E97FF09C09095809570956195FB
S1130B807F4F8F4F9F4FF0683F2E2AE030E0A30144
S1130B900E94EF06882E861845C0853731F4232D30
S1130BA02F7EB22E2AE030E025C0932D997FB92EF6
S1130BB08F36C1F018F4883579F0B5C0803719F054
S1130BC0883721F0B0C0E92FE061BE2EB4FE0DC01D
S1130BD0FB2DF460BF2E09C034FE0AC0292F266005
S1130BE0B22E06C028E030E005C020E130E002C0AB
S1130BF020E132E0F801B7FE07C060817181828193
S1130C0093810C5F1F4F06C06081718180E090E08A
S1130C100E5F1F4FA3010E94EF06882E8618FB2D3E
S1130C20FF773F2E36FE0DC0232D2E7FA22E891472
S1130C3058F434FE0BC032FC09C0832D8E7EA82EDE
S1130C4005C0B82CA32C03C0B82C01C0B92CA4FE39
S1130C500FC0FE01E80DF11D8081803321F49A2D2F
S1130C60997EA92E09C0A2FE06C0B394B39404C011
S1130C708A2D867809F0B394A3FC11C0A0FE06C0A7
S1130C80B21488F4280C922C9B180EC0B21460F491
S1130C90B60180E290E00E94B306B394F7CFB21499
S1130CA018F42B1802C0982C212CA4FE10C0B601F5
S1130CB080E390E00E94B306A2FE17C0A1FC03C02B
S1130CC088E790E002C088E590E0B6010CC08A2D68
S1130CD0867859F0A1FE02C08BE201C080E2A7FC35
S1130CE08DE2B60190E00E94B306891438F4B6018F
S1130CF080E390E00E94B3069A94F7CF8A94F301BC
S1130D00E80DF11D8081B60190E00E94B3068110C8
S1130D10F5CF222009F442CEB60180E290E00E9491
S1130D20B3062A94F6CFF6018681978102C08FEF2D
S1130D309FEF2B96E2E10C946907FC01059061504A
S1130D4070400110D8F7809590958E0F9F1F0895DD
S1130D50FC016150704001900110D8F78095909586
S1130D608E0F9F1F08950F931F93CF93DF93FB0163
S1130D70238121FD03C08FEF9FEF2CC022FF16C0FB
S1130D8046815781248135814217530744F4A08159
S1130D90B1819D012F5F3F4F318320838C93268146
S1130DA037812F5F3F4F3783268314C08B01EC01BB
S1130DB0FB010084F185E02D0995892BE1F6D8012A
S1130DC016968D919C911797019617969C938E93E6
S1130DD01697CE01DF91CF911F910F910895FA01DB
S1130DE0AA27283051F1203181F1E8946F936E7F66
S1130DF06E5F7F4F8F4F9F4FAF4FB1E03ED0B4E057
S1130E003CD0670F781F891F9A1FA11D680F791F97
S1130E108A1F911DA11D6A0F711D811D911DA11DA8
S1130E2020D009F468943F912AE0269F11243019B8
S1130E30305D3193DEF6CF010895462F4770405D53
S1130E404193B3E00FD0C9F7F6CF462F4F70405D02
S1130E504A3318F0495D31FD4052419302D0A9F75D
S1130E60EACFB4E0A6959795879577956795BA9557
S1130E70C9F700976105710508959B01AC010A2E1D
S1130E8006945795479537952795BA95C9F7620FF4
S1130E90731F841F951FA01D08952F923F924F9298
S1130EA05F926F927F928F929F92AF92BF92CF92F6
S1130EB0DF92EF92FF920F931F93CF93DF93CDB7FF
S1130EC0DEB7CA1BDB0B0FB6F894DEBF0FBECDBF77
S1130ED009942A88398848885F846E847D848C8448
S1130EE09B84AA84B984C884DF80EE80FD800C8151
S1130EF01B81AA81B981CE0FD11D0FB6F894DEBF34
S10F0F000FBECDBFED010895F894FFCFA3
S1070F0C2564000054
S9030000FC
