:100000000C9464000C9481000C9481000C94850184
:100010000C9481000C9481000C9481000C9481005C
:100020000C9481000C9481000C9481000C9481004C
:100030000C9481000C9481000C9481000C9481003C
:100040000C9481000C9481000C9481000C9481002C
:100050000C9481000C9481000C94FD00A8EA802A85
:100060000040000A510A084059551801111E111B81
:10007000500B411B411F1101511F511B000000007B
:100080000880001A204000000000510F91394114EF
:100090009131411E410E411D500F802010154886A0
:1000A0004014780570855115510E5195518E21904F
:1000B00081205015484450C528C0282009504114BB
:1000C000208011110000001011241FBECFEFD4E0DA
:1000D000DEBFCDBF11E0A0E0B1E0E6E3FDE002C08D
:1000E00005900D92A630B107D9F721E0A6E0B1E066
:1000F00001C01D92A23AB207E1F70E946D010C9473
:1001000099060C9400008FE08093E70087EB8093C2
:10011000E50087E08093E600E4EEF0E080EC808389
:100120008081886080830895DC01EBE0F1E090E05D
:100130008FEF2D9136ED320F313528F4203209F44E
:10014000382F308303C0222329F080839F5F3196AC
:10015000943179F781E0973008F480E080933B0197
:100160008AE08093090187E0890F2FEFE92FF0E003
:10017000E55FFE4F20839F5F9813F8CFE82FF0E0F4
:10018000E55FFE4F108210920A018093080181E022
:10019000809326010895A62FA695B0E0A95DBE4FD5
:1001A0008F3FF1F0E82FF0E0EE0FFF1FE45AFF4F12
:1001B0002591349117C0822F8F70552311F08295AD
:1001C000807F9C919423892B8C93329522952F705C
:1001D00023273F70232715966A177B0761F7089539
:1001E00020E030E0562F517060FF02C04FE001C0A8
:1001F00040EFBD016C5E7F4FDECF1F920F920FB6B6
:100200000F9211242F933F934F935F936F937F939C
:100210008F939F93AF93BF93CF93EF93FF9380916F
:100220003B01882309F442C080910901811104C077
:1002300081E08093260104C081508093090136C07B
:10024000C0E0E0910A01EC0F80910801E81738F056
:10025000F0E0E81BF109E55FFE4F808104C0F0E0AB
:10026000E55FFE4F80816C2F0E94CB00CF5FC630D0
:1002700041F780910A0191E0980F90930A019091C3
:100280000801891303C081E080930A0183E0809311
:10029000090110922601A7E2B1E0ECEEF0E08D91A9
:1002A0008193E11581E0F807D1F705C0809126011F
:1002B000882389F3C5CFFF91EF91CF91BF91AF9183
:1002C0009F918F917F916F915F914F913F912F916E
:1002D0000F900FBE0F901F901895C2E0C4B90E94F6
:1002E000830081E080936C0090E89DBB94E094BD16
:1002F000C0936E0093E094B915B800C085B900C0F2
:1003000000C00000C4B97894FFCF1F920F920FB6BF
:100310000F9211242F933F934F935F936F937F938B
:100320008F939F93AF93BF93EF93FF9380910601B9
:10033000909107010196909307018093060103971E
:1003400009F416BC8091060190910701049709F009
:10035000C4C066B570E080E090E00E94B60221ED76
:1003600032E24BE55EE30E941A030E947E02609334
:100370003C0170933D017F936F9380E091E09F93E8
:100380008F938EE391E09F938F930E94AF038EE350
:1003900091E00E949400109207011092060116BC91
:1003A00080913C0190913D010F900F900F900F9024
:1003B0000F900F908F31910514F015B88EC08630D4
:1003C00091051CF482E085B988C09C012650310952
:1003D00025303105B0F482E085B92FE58AEE90E052
:1003E000215080409040E1F700C0000015B82FE593
:1003F0008AEE90E0215080409040E1F700C000007C
:100400006CC09C012B50310925303105B0F482E0DD
:1004100085B92FE88FE591E0215080409040E1F7C9
:1004200000C0000015B82FE88FE591E02150804012
:100430009040E1F700C0000050C09C0120513109FC
:1004400025303105B0F482E085B92FEB84ED91E0E1
:10045000215080409040E1F700C0000015B82FEB1C
:1004600084ED91E0215080409040E1F700C0000011
:1004700034C09C012551310925303105B0F482E0AA
:1004800085B92FEE89E492E0215080409040E1F759
:1004900000C0000015B82FEE89E492E021508040A2
:1004A0009040E1F700C0000018C04A970597A8F4F3
:1004B00082E085B92FE38DE093E0215080409040A9
:1004C000E1F700C0000015B82FE38DE093E0215064
:1004D00080409040E1F700C00000FF91EF91BF9194
:1004E000AF919F918F917F916F915F914F913F91CC
:1004F0002F910F900FBE0F901F9018950E948502AC
:100500006894B1110C94140308950E94F90288F0C4
:100510009F5798F0B92F9927B751B0F0E1F0660FC7
:10052000771F881F991F1AF0BA95C9F714C0B13008
:1005300091F00E941303B1E008950C941303672F08
:10054000782F8827B85F39F0B93FCCF38695779537
:100550006795B395D9F73EF4909580957095619520
:100560007F4F8F4F9F4F0895E89409C097FB3EF44B
:1005700090958095709561957F4F8F4F9F4F9923F0
:10058000A9F0F92F96E9BB279395F695879577956E
:100590006795B795F111F8CFFAF4BB0F11F460FF2E
:1005A0001BC06F5F7F4F8F4F9F4F16C0882311F086
:1005B00096E911C0772321F09EE8872F762F05C09A
:1005C000662371F096E8862F70E060E02AF09A9535
:1005D000660F771F881FDAF7880F9695879597F92A
:1005E000089557FD9058440F551F59F05F3F71F023
:1005F0004795880F97FB991F61F09F3F79F087958A
:100600000895121613061406551FF2CF4695F1DF12
:1006100008C0161617061806991FF1CF86957105A2
:10062000610508940895E894BB2766277727CB01D6
:1006300097F908950E942D030C949E030E94900345
:1006400038F00E94970320F0952311F00C94870353
:100650000C948D0311240C9414030E94F10270F386
:10066000959FC1F3950F50E0551F629FF001729F57
:10067000BB27F00DB11D639FAA27F00DB11DAA1F66
:10068000649F6627B00DA11D661F829F2227B00DB3
:10069000A11D621F739FB00DA11D621F839FA00D3E
:1006A000611D221F749F3327A00D611D231F849F8E
:1006B000600D211D822F762F6A2F11249F575040E5
:1006C0009AF0F1F088234AF0EE0FFF1FBB1F661F60
:1006D000771F881F91505040A9F79E3F510580F029
:1006E0000C9487030C9414035F3FE4F3983ED4F317
:1006F000869577956795B795F795E7959F5FC1F7CD
:10070000FE2B880F911D9695879597F9089597F977
:100710009F6780E870E060E008959FEF80EC0895A7
:1007200000240A94161617061806090608950024D0
:100730000A9412161306140605060895092E03944A
:10074000000C11F4882352F0BB0F40F4BF2B11F4BE
:1007500060FF04C06F5F7F4F8F4F9F4F0895AEE0E3
:10076000B0E0E5EBF3E00C9470060D891E8986E09D
:100770008C831A8309838FEF9FE79E838D83AE015D
:10078000475E5F4F6F89788DCE0101960E94D1033D
:10079000EF81F885E00FF11F10822E96E4E00C94B3
:1007A0008C06ABE0B0E0E7EDF3E00C9462066C0180
:1007B0007B018A01FC0117821682838181FFCCC1F3
:1007C000CE0101963C01F6019381F70193FD8591DD
:1007D00093FF81917F01882309F4BAC1853239F4EE
:1007E00093FD859193FF81917F01853229F4B601B4
:1007F00090E00E94C805E7CF912C212C312CFFE11D
:10080000F315D8F08B3279F038F4803279F08332F6
:10081000A1F4232D20611DC08D3261F0803369F475
:10082000232D216016C0832D8260382EE32DE460D5
:100830003E2E2AC0F32DF8601DC037FC2DC020EDE0
:10084000280F2A3040F08E32B9F436FC81C1232DB6
:100850002064322E19C036FE06C08AE0989E200D14
:100860001124922E11C0EAE02E9E200D1124222E7A
:10087000F32DF0623F2E08C08C3621F4832D806862
:10088000382E02C0883641F4F70193FD859193FF1D
:1008900081917F018111B3CF982F9F7D9554933023
:1008A00028F40C5F1F4F9FE399830DC0833631F00E
:1008B000833771F0833509F059C021C0F801808178
:1008C00089830E5F1F4F88248394912C530113C09A
:1008D0002801F2E04F0E511CF801A080B18036FED5
:1008E00003C0692D70E002C06FEF7FEFC5010E9469
:1008F000BD054C018201F32DFF773F2E16C0280164
:1009000022E0420E511CF801A080B18036FE03C0E7
:10091000692D70E002C06FEF7FEFC5010E94B20544
:100920004C01F32DF0683F2E820133FC1BC0822D59
:1009300090E088169906B0F4B60180E290E00E943B
:10094000C8052A94F4CFF50137FC859137FE8191D3
:100950005F01B60190E00E94C80521102A9421E0B1
:10096000821A91088114910471F7E8C0843611F05D
:10097000893641F5F80137FE07C0608171818281B7
:1009800093810C5F1F4F08C060817181072E000C9E
:10099000880B990B0E5F1F4FF32DFF763F2E97FFAD
:1009A00009C090958095709561957F4F8F4F9F4FAF
:1009B000F0683F2E2AE030E0A3010E940406882E52
:1009C000861845C0853731F4232D2F7EB22E2AE0BC
:1009D00030E025C0932D997FB92E8F36C1F018F4E1
:1009E000883579F0B5C0803719F0883721F0B0C06C
:1009F000E92FE061BE2EB4FE0DC0FB2DF460BF2ECA
:100A000009C034FE0AC0292F2660B22E06C028E095
:100A100030E005C020E130E002C020E132E0F80122
:100A2000B7FE07C060817181828193810C5F1F4F87
:100A300006C06081718180E090E00E5F1F4FA301CE
:100A40000E940406882E8618FB2DFF773F2E36FE67
:100A50000DC0232D2E7FA22E891458F434FE0BC016
:100A600032FC09C0832D8E7EA82E05C0B82CA32C85
:100A700003C0B82C01C0B92CA4FE0FC0FE01E80DC4
:100A8000F11D8081803321F49A2D997EA92E09C011
:100A9000A2FE06C0B394B39404C08A2D867809F0F0
:100AA000B394A3FC11C0A0FE06C0B21488F4280CB5
:100AB000922C9B180EC0B21460F4B60180E290E054
:100AC0000E94C805B394F7CFB21418F42B1802C0D3
:100AD000982C212CA4FE10C0B60180E390E00E9467
:100AE000C805A2FE17C0A1FC03C088E790E002C0C1
:100AF00088E590E0B6010CC08A2D867859F0A1FEF9
:100B000002C08BE201C080E2A7FC8DE2B60190E05A
:100B10000E94C805891438F4B60180E390E00E9471
:100B2000C8059A94F7CF8A94F301E80DF11D8081EE
:100B3000B60190E00E94C8058110F5CF222009F48B
:100B400042CEB60180E290E00E94C8052A94F6CF1A
:100B5000F6018681978102C08FEF9FEF2B96E2E12D
:100B60000C947E06FC010590615070400110D8F78E
:100B7000809590958E0F9F1F0895FC0161507040E5
:100B800001900110D8F7809590958E0F9F1F0895C2
:100B90000F931F93CF93DF93FB01238121FD03C0AC
:100BA0008FEF9FEF2CC022FF16C046815781248112
:100BB00035814217530744F4A081B1819D012F5F15
:100BC0003F4F318320838C93268137812F5F3F4FA6
:100BD0003783268314C08B01EC01FB010084F1856F
:100BE000E02D0995892BE1F6D80116968D919C91FF
:100BF0001797019617969C938E931697CE01DF91C7
:100C0000CF911F910F910895FA01AA27283051F131
:100C1000203181F1E8946F936E7F6E5F7F4F8F4F2D
:100C20009F4FAF4FB1E03ED0B4E03CD0670F781F8C
:100C3000891F9A1FA11D680F791F8A1F911DA11D71
:100C40006A0F711D811D911DA11D20D009F46894AA
:100C50003F912AE0269F11243019305D3193DEF652
:100C6000CF010895462F4770405D4193B3E00FD008
:100C7000C9F7F6CF462F4F70405D4A3318F0495DF3
:100C800031FD4052419302D0A9F7EACFB4E0A695D6
:100C90009795879577956795BA95C9F700976105F8
:100CA000710508959B01AC010A2E0694579547954E
:100CB00037952795BA95C9F7620F731F841F951F43
:100CC000A01D08952F923F924F925F926F927F9254
:100CD0008F929F92AF92BF92CF92DF92EF92FF924C
:100CE0000F931F93CF93DF93CDB7DEB7CA1BDB0BF8
:100CF0000FB6F894DEBF0FBECDBF09942A8839889D
:100D000048885F846E847D848C849B84AA84B984A3
:100D1000C884DF80EE80FD800C811B81AA81B981AF
:100D2000CE0FD11D0FB6F894DEBF0FBECDBFED01C3
:060D30000895F894FFCFC6
:060D3600256420494E0077
:00000001FF
