:100000000C942E000C9443000C9443000C94430079
:100010000C9443000C9443000C9443000C94430054
:100020000C9443000C9443000C9443000C94430044
:100030000C9443000C9443000C9443000C94430034
:100040000C9443000C9443000C9443000C94430024
:100050000C9443000C9443000C94430011241FBEE5
:10006000CFEFD4E0DEBFCDBF11E0A0E0B1E0E8E02B
:10007000F1E002C005900D92AE30B107D9F70E94B1
:1000800045000C9482000C940000CF93DF93CDB711
:10009000DEB72D970FB6F894DEBF0FBECDBF8DE053
:1000A000E0E0F1E0DE01119601900D928A95E1F712
:1000B00080E590E092BD81BD8FE280BD84E08FBB82
:1000C00082E08FBBFE013196AE01425F5F4F34E0AC
:1000D00022E0F999FECF81B592B5019692BD81BD1E
:1000E000819180BD3FBB2FBBE417F50791F780E0FE
:1000F00090E02D960FB6F894DEBF0FBECDBFDF9116
:08010000CF910895F894FFCFA0
:0E010800434845434B53554D42595445000062
:00000001FF
