S01A000050726F636573736F724C61623950617274322E7372656339
S11300000C942E000C9438000C9438000C94380096
S11300100C9438000C9438000C9438000C9438007C
S11300200C9438000C9438000C9438000C9438006C
S11300300C9438000C9438000C9438000C9438005C
S11300400C9438000C9438000C9438000C9438004C
S11300500C9438000C9438000C94380011241FBE02
S1130060CFEFD4E0DEBFCDBF0E943A000C94B400C1
S11300700C940000CF93DF93CDB7DEB728970FB66B
S1130080F894DEBF0FBECDBF8AE290E02FEFFC01F3
S113009020831F8218868BE290E03F812885232BE2
S11300A0FC0120830E948E0019821A821C821B820A
S11300B01E821D822DC08A818F5F8A838D819E81DD
S11300C001969E838D838BE290E039812A81232BD4
S11300D0FC0120830E948E008D819E8109975CF330
S11300E01A828981805F89838981803A09F419821F
S11300F08BE290E039812A81232BFC0120830E942A
S11301008E001E821D828B819C8101979C838B8330
S11301108B819C8118161906FCF2C6CFCF93DF930E
S113012000D000D0CDB7DEB719821A821B821C82A0
S113013089819A81AB81BC810196A11DB11D8983FE
S11301409A83AB83BC8389819A81AB81BC818831DA
S1130150944EA340B10560F300000F900F900F90F0
S10F01600F90DF91CF910895F894FFCF29
S9030000FC
