:100000000C942E000C9438000C9438000C9438009A
:100010000C9438000C9438000C9438000C94380080
:100020000C9438000C9438000C9438000C94380070
:100030000C9438000C9438000C9438000C94380060
:100040000C9438000C9438000C9438000C94380050
:100050000C9438000C9438000C94380011241FBE06
:10006000CFEFD4E0DEBFCDBF0E943A000C947A00FF
:100070000C940000CF93DF93CDB7DEB78AE290E017
:1000800021E0FC0120838BE290E021E0FC01208351
:100090000E9451008BE290E0FC0110820E9451000E
:1000A000F2CFCF93DF93CDB7DEB781E890E02DE0BC
:1000B000FC01208384E890E0FC01118210828AE830
:1000C00090E023E43FE0FC0131832083000086E3DD
:1000D00090E0FC0180818823D1F386E390E025E065
:1000E000FC01208381E890E0FC0110820000DF9198
:0800F000CF910895F894FFCFB1
:00000001FF
