S01A000050726F636573736F7246696E616C4578616D2E73726563D5
S11300000C9464000C9481000C9481000C94F7030C
S11300100C9481000C9481000C9481000C94810058
S11300200C9481000C9481000C9481000C94810048
S11300300C9481000C9481000C9481000C94810038
S11300400C9481000C9481000C9481000C94810028
S11300500C9481000C9481000C948A01A8EA802AF3
S11300600040000A510A084059551801111E111B7D
S1130070500B411B411F1101511F511B0000000077
S11300800880001A204000000000510F91394114EB
S11300909131411E410E411D500F8020101548869C
S11300A04014780570855115510E5195518E21904B
S11300B081205015484450C528C0282009504114B7
S11300C0208011110000001011241FBECFEFD4E0D6
S11300D0DEBFCDBF11E0A0E0B1E0EEEAF4E102C082
S11300E005900D92A031B107D9F721E0A0E1B1E06C
S11300F001C01D92A33BB207E1F70E9427020C94B2
S1130100550A0C940000CF93DF93CDB7DEB787EE8A
S113011090E02FE0FC01208385EE90E027EBFC01CA
S1130120208386EE90E027E0FC01208384EE90E0BB
S113013020ECFC01208384EE90E024EE30E0F90111
S113014020812860FC0120830000DF91CF91089575
S1130150CF93DF9300D000D01F92CDB7DEB79D833D
S11301608C8319822DC08C819D819C012F5F3F4F10
S11301703D832C83FC0180818B838B818A3290F0B8
S11301808B818B3778F48981882F90E02B81203202
S113019019F02B812A5201C02FEF8C5E9E4FFC0177
S11301A020830BC08B81882379F08981882F90E08C
S11301B08C5E9E4F2FEFFC01208389818F5F8983A2
S11301C08981843180F201C0000081E099819730F7
S11301D008F480E0809344018AE0809312011A823B
S11301E00EC0898191E0980F9983882F90E08C5EEE
S11301F09E4F2FEFFC0120838A818F5F8A838A813F
S1130200873078F38981882F90E08C5E9E4FFC01C3
S113021010821092130189818093110181E08093EF
S11302202F0100000F900F900F900F900F90DF910F
S1130230CF910895CF93DF93CDB7DEB72D970FB647
S1130240F894DEBF0FBECDBF8C876D871A821982EA
S11302508D858695882F90E0805D9E4F9C838B834F
S11302608C858F3FB9F08C85882F90E0880F991F7B
S1130270845A9F4F9987888788859985FC012591A1
S11302803491CF013B872A87998788878A859B8504
S11302909A8389831D8231C080EF8E8389818F7018
S11302A08F838D85882F90E081709927892B31F079
S11302B08FE08E838F818295807F8F838B819C8159
S11302C0FC0190818E8198238F81292F282B8B818B
S11302D09C81FC01208389819A81929582958F70FB
S11302E089279F7089279A8389838B819C810596AE
S11302F09C838B838D818F5F8D838D81843060F2AD
S113030000002D960FB6F894DEBF0FBECDBFDF916F
S1130310CF9108951F920F9200905F000F921124C5
S11303202F933F934F935F936F937F938F939F93F9
S1130330AF93BF93EF93FF93CF93DF9300D01F92BC
S1130340CDB7DEB780914401882369F08091120112
S1130350882321F481E080932F0105C0809112014C
S113036081508093120180912F01882309F441C0A8
S113037019822AC0909113018981890F8A838091FF
S113038011019A81981788F08A81282F30E0809192
S11303901101882F90E0A901481B590BCA018C5EFA
S11303A09E4FFC0180818A8308C08A81882F90E057
S11303B08C5E9E4FFC0180818A8369818A810E94C0
S11303C01A0189818F5F89838981863098F28091AF
S11303D0130191E0980F90931301909111018917E3
S11303E019F481E08093130183E080931201109249
S11303F02F011B8211C08B81882F90E084519F4F65
S11304002B81222F30E0205D3E4FF9012081FC0139
S113041020838B818F5F8B838B81843160F3000019
S11304200F900F900F90DF91CF91FF91EF91BF91BB
S1130430AF919F918F917F916F915F914F913F9178
S11304402F910F9000925F000F901F901895CF93FB
S1130450DF93CDB7DEB70E9483000E949C058CE633
S113046090E022E0FC0120838DE390E020E8FC0191
S1130470208380EB90E026E0FC01208380E790E07D
S113048022E0FC01208384E290E03091100120916D
S11304900001322B20910201322B20910101232BE8
S11304A0FC01208385E290E0FC0110820E9441035C
S11304B085E290E020910101FC0120830E94630306
S11304C084E290E03091100120910001322B2091C0
S11304D00201232BFC01208378940E94B60590939B
S11304E046018093450180914501909146019C010C
S11304F0990F440B550B88EC99E1DC010E945107DC
S1130500DC01CB01072E7AE0B695A79597958795E0
S11305107A95D1F7702D90934E0180934D0180917F
S11305204D0190914E01181619062CF580914D013C
S113053090914E01893E9340F4F478948091470160
S1130540909148011816190664F48091470190911E
S113055048010B9734F40E945C050E947705000063
S11305608EC080914701909148014F970CF487C049
S11305700E943B0584C080914D0190914E01893EBB
S11305809340CCF180914D0190914E01813D974073
S113059094F580914D0190914E01292F2F938F93C3
S11305A083E091E0892F8F9383E091E08F938FE430
S11305B091E0892F8F938FE491E08F930E946B07D2
S11305C00F900F900F900F900F900F908FE491E089
S11305D00E94A800F89485E290E020910201FC01B9
S11305E020830E94D60585E290E0FC0110820E94DF
S11305F0D605789445C080914D0190914E01813D7E
S113060097400CF46ACF80914D0190914E01883B44
S11306109B400CF062CF80914D0190914E01292FA7
S11306202F938F9383E091E0892F8F9383E091E060
S11306308F938FE491E0892F8F938FE491E08F93D0
S11306400E946B070F900F900F900F900F900F90D8
S11306508FE491E00E94A800F89485E290E0209154
S11306600201FC0120830E94FB0585E290E02091B9
S11306701001FC0120830E94FB0578942ECF00001A
S11306802CCFCF93DF93CDB7DEB784E490E021E0A5
S1130690FC01208386E490E020EFFC01208300002D
S11306A085E390E0FC0180818823D1F384E490E029
S11306B0FC01108285E390E023E0FC01208300002C
S11306C0DF91CF910895CF93DF93CDB7DEB784E464
S11306D090E021E0FC01208386E490E028EDFC0119
S11306E02083000085E390E0FC0180818823D1F31E
S11306F084E490E0FC01108285E390E023E0FC01B7
S113070020830000DF91CF910895CF93DF93CDB77D
S1130710DEB786E490E0FC01108284E490E02DE0F2
S1130720FC01208387E490E02CE9FC012083000095
S113073085E390E0FC0180818823D1F384E490E098
S1130740FC01108285E390E023E0FC01208300009B
S1130750DF91CF910895CF93DF93CDB7DEB786E4D1
S113076090E0FC01108284E490E02DE0FC01208301
S113077087E490E02DE0FC012083000085E390E015
S1130780FC0180818823D1F384E490E0FC01108291
S113079085E390E023E0FC0120830000DF91CF910A
S11307A00895CF93DF93CDB7DEB786E490E0FC01E4
S11307B0108284E490E02DE0FC01208387E490E043
S11307C02AE0FC012083000085E390E0FC018081A5
S11307D08823D1F384E490E0FC01108285E390E067
S11307E023E0FC0120830000DF91CF9108951F9244
S11307F00F9200905F000F9211242F933F934F9319
S11308005F936F937F938F939F93AF93BF93EF9374
S1130810FF93CF93DF93CDB7DEB780914B019091D7
S11308204C01019690934C0180934B0180914B01B4
S113083090914C01039721F482EB90E0FC0110822B
S113084080914B0190914C01049709F04DC082EBCB
S113085090E0FC018081882F90E0092E000CAA0B07
S1130860BB0BBC01CD010E945806DC01CB0121ED7C
S113087032E24BE55EE3BC01CD010E94BC06DC0123
S1130880CB01BC01CD010E942006DC01CB01909379
S11308904801809347018091470190914801292F95
S11308A02F938F9389E091E0892F8F9389E091E0D2
S11308B08F938FE491E0892F8F938FE491E08F934E
S11308C00E946B070F900F900F900F900F900F9056
S11308D08FE491E00E94A80082EB90E0FC0110827A
S11308E010924C0110924B01809147019091480164
S11308F00B97D4F080914701909148014097A4F45C
S113090085E290E020910101FC0120830E9477059B
S113091085E290E03091010120910201232BFC013A
S113092020830E94770592C08091470190914801ED
S113093040970CF442C0809147019091480145973B
S1130940E4F585E290E020910101FC0120831092FE
S11309504A01109249010BC00E9477058091490118
S113096090914A01019690934A01809349018091A4
S1130970490190914A01029779F785E290E030911C
S1130980010120910201232BFC01208310924A01D2
S1130990109249010BC00E94770580914901909102
S11309A04A01019690934A0180934901809149013B
S11309B090914A01029779F749C08091470190913B
S11309C0480145970CF442C0809147019091480139
S11309D04F97E4F585E290E020910101FC0120832A
S11309E010924A01109249010BC00E947705809130
S11309F0490190914A01019690934A0180934901DB
S1130A008091490190914A01039779F710924A0124
S1130A101092490185E290E0309101012091020198
S1130A20232BFC0120830BC00E9477058091490190
S1130A3090914A01019690934A01809349018091D3
S1130A40490190914A01039779F700C00000DF91B2
S1130A50CF91FF91EF91BF91AF919F918F917F9132
S1130A606F915F914F913F912F910F9000925F0092
S1130A700F901F901895CF93DF93CDB7DEB785E223
S1130A8090E03091000120910101322B209102016C
S1130A90232BFC0120830E94D10385E290E0309156
S1130AA0010120910201232BFC0120830E94850374
S1130AB00000DF91CF910895CF93DF93CDB7DEB7D8
S1130AC085E290E03091000120910101232BFC018B
S1130AD020830E94AB0385E290E020910101FC0198
S1130AE020830E9485030000DF91CF910895CF9366
S1130AF0DF93CDB7DEB781E890E025E0FC012083E9
S1130B0084E890E02AE731EEFC0131832083000081
S1130B1086E390E0FC0180818823D1F381E890E0B2
S1130B20FC01108286E390E027E0FC0120830000B2
S1130B300000DF91CF910895CF93DF93CDB7DEB757
S1130B408AE790E02AE730E0F9012081276CFC0174
S1130B5020838CE790E02CE730E0F9012081216CC0
S1130B60FC0120830000DF91CF910895CF93DF93A0
S1130B70CDB7DEB78AE790E02AE730E0F9012081BB
S1130B802064FC01208300008AE790E0FC0180815E
S1130B90882F90E080749927892BB1F788E790E03B
S1130BA0FC0180819181DF91CF910895CF93DF93F0
S1130BB0CDB7DEB781E890E025E0FC01208384E82E
S1130BC090E026EF32ECFC0131832083000086E3C1
S1130BD090E0FC0180818823D1F381E890E0FC015E
S1130BE0108286E390E027E0FC01208300000000EF
S1130BF0DF91CF910895CF93DF93CDB7DEB781E82E
S1130C0090E025E0FC01208384E890E028E637E6C4
S1130C10FC0131832083000086E390E0FC018081A5
S1130C208823D1F381E890E0FC01108286E390E010
S1130C3027E0FC01208300000000DF91CF9108959C
S1130C400E9427066894B1110C94B60608950E9478
S1130C509B0688F09F5798F0B92F9927B751B0F0A9
S1130C60E1F0660F771F881F991F1AF0BA95C9F72C
S1130C7014C0B13091F00E94B506B1E008950C940F
S1130C80B506672F782F8827B85F39F0B93FCCF3C2
S1130C90869577956795B395D9F73EF490958095A9
S1130CA0709561957F4F8F4F9F4F0895E89409C0C9
S1130CB097FB3EF490958095709561957F4F8F4F8B
S1130CC09F4F9923A9F0F92F96E9BB279395F695A1
S1130CD0879577956795B795F111F8CFFAF4BB0F1F
S1130CE011F460FF1BC06F5F7F4F8F4F9F4F16C083
S1130CF0882311F096E911C0772321F09EE8872F0D
S1130D00762F05C0662371F096E8862F70E060E0C8
S1130D102AF09A95660F771F881FDAF7880F969541
S1130D20879597F9089557FD9058440F551F59F02A
S1130D305F3F71F04795880F97FB991F61F09F3FC4
S1130D4079F087950895121613061406551FF2CFED
S1130D504695F1DF08C0161617061806991FF1CF3D
S1130D6086957105610508940895E894BB27662764
S1130D707727CB0197F908950E94CF060C9440077A
S1130D800E94320738F00E94390720F0952311F0B1
S1130D900C9429070C942F0711240C94B6060E9476
S1130DA0930670F3959FC1F3950F50E0551F629F12
S1130DB0F001729FBB27F00DB11D639FAA27F00DB0
S1130DC0B11DAA1F649F6627B00DA11D661F829FD7
S1130DD02227B00DA11D621F739FB00DA11D621FBC
S1130DE0839FA00D611D221F749F3327A00D611DD9
S1130DF0231F849F600D211D822F762F6A2F1124BB
S1130E009F5750409AF0F1F088234AF0EE0FFF1FED
S1130E10BB1F661F771F881F91505040A9F79E3F44
S1130E20510580F00C9429070C94B6065F3FE4F357
S1130E30983ED4F3869577956795B795F795E7959A
S1130E409F5FC1F7FE2B880F911D9695879597F9A3
S1130E50089597F99F6780E870E060E008959FEF38
S1130E6080EC089500240A9416161706180609063D
S1130E70089500240A94121613061406050608950C
S1130E80092E0394000C11F4882352F0BB0F40F494
S1130E90BF2B11F460FF04C06F5F7F4F8F4F9F4FD4
S1130EA008950E945C07A59F900DB49F900DA49F88
S1130EB0800D911D11240895A29FB001B39FC0011C
S1130EC0A39F700D811D1124911DB29F700D811D72
S1130ED01124911D0895AEE0B0E0E1E7F7E00C9431
S1130EE02C0A0D891E8986E08C831A8309838FEF6F
S1130EF09FE79E838D83AE01475E5F4F6F89788D38
S1130F00CE0101960E948D07EF81F885E00FF11F55
S1130F1010822E96E4E00C94480AABE0B0E0E3E9DA
S1130F20F7E00C941E0A6C017B018A01FC01178214
S1130F301682838181FFCCC1CE0101963C01F6016A
S1130F409381F70193FD859193FF81917F0188231C
S1130F5009F4BAC1853239F493FD859193FF8191E7
S1130F607F01853229F4B60190E00E948409E7CF1D
S1130F70912C212C312CFFE1F315D8F08B3279F030
S1130F8038F4803279F08332A1F4232D20611DC01E
S1130F908D3261F0803369F4232D216016C0832DD6
S1130FA08260382EE32DE4603E2E2AC0F32DF860D3
S1130FB01DC037FC2DC020ED280F2A3040F08E32A2
S1130FC0B9F436FC81C1232D2064322E19C036FEBB
S1130FD006C08AE0989E200D1124922E11C0EAE0EA
S1130FE02E9E200D1124222EF32DF0623F2E08C0D8
S1130FF08C3621F4832D8068382E02C0883641F463
S1131000F70193FD859193FF81917F018111B3CF06
S1131010982F9F7D9554933028F40C5F1F4F9FE3C6
S113102099830DC0833631F0833771F0833509F02D
S113103059C021C0F801808189830E5F1F4F882425
S11310408394912C530113C02801F2E04F0E511CDC
S1131050F801A080B18036FE03C0692D70E002C0A3
S11310606FEF7FEFC5010E9479094C018201F32DD6
S1131070FF773F2E16C0280122E0420E511CF801D2
S1131080A080B18036FE03C0692D70E002C06FEF0E
S11310907FEFC5010E946E094C01F32DF0683F2ECD
S11310A0820133FC1BC0822D90E088169906B0F4AF
S11310B0B60180E290E00E9484092A94F4CFF501FD
S11310C037FC859137FE81915F01B60190E00E9463
S11310D0840921102A9421E0821A91088114910430
S11310E071F7E8C0843611F0893641F5F80137FE0E
S11310F007C060817181828193810C5F1F4F08C09A
S113110060817181072E000C880B990B0E5F1F4FB5
S1131110F32DFF763F2E97FF09C09095809570952B
S113112061957F4F8F4F9F4FF0683F2E2AE030E04C
S1131130A3010E94C009882E861845C0853731F462
S1131140232D2F7EB22E2AE030E025C0932D997FE7
S1131150B92E8F36C1F018F4883579F0B5C08037D0
S113116019F0883721F0B0C0E92FE061BE2EB4FE3B
S11311700DC0FB2DF460BF2E09C034FE0AC0292F18
S11311802660B22E06C028E030E005C020E130E041
S113119002C020E132E0F801B7FE07C0608171812E
S11311A0828193810C5F1F4F06C06081718180E052
S11311B090E00E5F1F4FA3010E94C009882E86187D
S11311C0FB2DFF773F2E36FE0DC0232D2E7FA22E42
S11311D0891458F434FE0BC032FC09C0832D8E7E72
S11311E0A82E05C0B82CA32C03C0B82C01C0B92C60
S11311F0A4FE0FC0FE01E80DF11D8081803321F4AF
S11312009A2D997EA92E09C0A2FE06C0B394B39468
S113121004C08A2D867809F0B394A3FC11C0A0FE03
S113122006C0B21488F4280C922C9B180EC0B21479
S113123060F4B60180E290E00E948409B394F7CF91
S1131240B21418F42B1802C0982C212CA4FE10C040
S1131250B60180E390E00E948409A2FE17C0A1FCBD
S113126003C088E790E002C088E590E0B6010CC0B6
S11312708A2D867859F0A1FE02C08BE201C080E27B
S1131280A7FC8DE2B60190E00E948409891438F429
S1131290B60180E390E00E9484099A94F7CF8A947F
S11312A0F301E80DF11D8081B60190E00E948409EC
S11312B08110F5CF222009F442CEB60180E290E0FD
S11312C00E9484092A94F6CFF6018681978102C090
S11312D08FEF9FEF2B96E2E10C943A0AFC01059004
S11312E0615070400110D8F7809590958E0F9F1F24
S11312F00895FC016150704001900110D8F7809569
S113130090958E0F9F1F08950F931F93CF93DF9394
S1131310FB01238121FD03C08FEF9FEF2CC022FF2F
S113132016C046815781248135814217530744F4FE
S1131330A081B1819D012F5F3F4F318320838C9326
S1131340268137812F5F3F4F3783268314C08B015B
S1131350EC01FB010084F185E02D0995892BE1F670
S1131360D80116968D919C911797019617969C9388
S11313708E931697CE01DF91CF911F910F9108950F
S1131380FA01AA27283051F1203181F1E8946F93B2
S11313906E7F6E5F7F4F8F4F9F4FAF4FB1E03ED058
S11313A0B4E03CD0670F781F891F9A1FA11D680FF6
S11313B0791F8A1F911DA11D6A0F711D811D911D29
S11313C0A11D20D009F468943F912AE0269F11249E
S11313D03019305D3193DEF6CF010895462F477002
S11313E0405D4193B3E00FD0C9F7F6CF462F4F705D
S11313F0405D4A3318F0495D31FD4052419302D0BB
S1131400A9F7EACFB4E0A695979587957795679560
S1131410BA95C9F700976105710508959B01AC0160
S11314200A2E06945795479537952795BA95C9F787
S1131430620F731F841F951FA01D08952F923F9262
S11314404F925F926F927F928F929F92AF92BF92D0
S1131450CF92DF92EF92FF920F931F93CF93DF937C
S1131460CDB7DEB7CA1BDB0B0FB6F894DEBF0FBED9
S1131470CDBF09942A88398848885F846E847D8426
S11314808C849B84AA84B984C884DF80EE80FD8028
S11314900C811B81AA81B981CE0FD11D0FB6F8949E
S11114A0DEBF0FBECDBFED010895F894FFCF5F
S11314AE0102402564204D5600256420494E00005B
S9030000FC
