:100000000C9464000C9481000C9481000C94B80250
:100010000C940D030C9481000C9481000C948100CD
:100020000C9481000C9481000C9481000C9481004C
:100030000C9481000C9481000C9481000C9481003C
:100040000C9481000C9481000C9481000C9481002C
:100050000C9481000C9481000C948A01A8EA802AF7
:100060000040000A510A084059551801111E111B81
:10007000500B411B411F1101511F511B000000007B
:100080000880001A204000000000510F91394114EF
:100090009131411E410E411D500F802010154886A0
:1000A0004014780570855115510E5195518E21904F
:1000B00081205015484450C528C0282009504114BB
:1000C000208011110000001011241FBECFEFD4E0DA
:1000D000DEBFCDBF11E0A0E0B1E0E0EAFCE002C08D
:1000E00005900D92A430B107D9F722E0A4E0B1E069
:1000F00001C01D92AE33B207E1F70E9427020C94B3
:100100004E060C940000CF93DF93CDB7DEB787EE99
:1001100090E02FE0FC01208385EE90E027EBFC01CE
:10012000208386EE90E027E0FC01208384EE90E0BF
:1001300020ECFC01208384EE90E024EE30E0F90115
:1001400020812860FC0120830000DF91CF91089579
:10015000CF93DF9300D000D01F92CDB7DEB79D8341
:100160008C8319822DC08C819D819C012F5F3F4F14
:100170003D832C83FC0180818B838B818A3290F0BC
:100180008B818B3778F48981882F90E02B81203206
:1001900019F02B812A5201C02FEF875F9E4FFC017F
:1001A00020830BC08B81882379F08981882F90E090
:1001B000875F9E4F2FEFFC01208389818F5F8983AA
:1001C0008981843180F201C0000081E099819730FB
:1001D00008F480E0809339018AE0809307011A8255
:1001E0000EC0898191E0980F9983882F90E0875FF6
:1001F0009E4F2FEFFC0120838A818F5F8A838A8143
:10020000873078F38981882F90E0875F9E4FFC01CB
:1002100010821092080189818093060181E0809309
:10022000240100000F900F900F900F900F90DF911E
:10023000CF910895CF93DF93CDB7DEB72D970FB64B
:10024000F894DEBF0FBECDBF8C876D871A821982EE
:100250008D858695882F90E08B5D9E4F9C838B8348
:100260008C858F3FB9F08C85882F90E0880F991F7F
:10027000845A9F4F9987888788859985FC012591A5
:100280003491CF013B872A87998788878A859B8508
:100290009A8389831D8231C080EF8E8389818F701C
:1002A0008F838D85882F90E081709927892B31F07D
:1002B0008FE08E838F818295807F8F838B819C815D
:1002C000FC0190818E8198238F81292F282B8B818F
:1002D0009C81FC01208389819A81929582958F70FF
:1002E00089279F7089279A8389838B819C810596B2
:1002F0009C838B838D818F5F8D838D81843060F2B1
:1003000000002D960FB6F894DEBF0FBECDBFDF9173
:10031000CF9108951F920F9200905F000F921124C9
:100320002F933F934F935F936F937F938F939F93FD
:10033000AF93BF93EF93FF93CF93DF9300D01F92C0
:10034000CDB7DEB780913901882369F0809107012C
:10035000882321F481E08093240105C08091070166
:1003600081508093070180912401882309F441C0C2
:1003700019822AC0909108018981890F8A8380910E
:1003800006019A81981788F08A81282F30E08091A1
:100390000601882F90E0A901481B590BCA01875F0D
:1003A0009E4FFC0180818A8308C08A81882F90E05B
:1003B000875F9E4FFC0180818A8369818A810E94C8
:1003C0001A0189818F5F89838981863098F28091B3
:1003D000080191E0980F9093080190910601891708
:1003E00019F481E08093080183E080930701109263
:1003F00024011B8211C08B81882F90E084519F4F74
:100400002B81222F30E02B5D3E4FF9012081FC0132
:1004100020838B818F5F8B838B81843160F300001D
:100420000F900F900F90DF91CF91FF91EF91BF91BF
:10043000AF919F918F917F916F915F914F913F917C
:100440002F910F9000925F000F901F901895CF93FF
:10045000DF93CDB7DEB70E94830084E290E022E014
:10046000FC01208385E290E021E0FC0120838CE602
:1004700090E021E0FC0120838DE390E020E8FC0186
:10048000208380EB90E02AE0FC01208383EB90E066
:1004900023EFFC01208382EB90E0FC01108280E7D7
:1004A00090E022E0FC012083789485E290E023E054
:1004B000FC0120830E94640285E290E021E0FC01BF
:1004C00020830E948E02F1CFCF93DF93CDB7DEB7AA
:1004D00084E490E02AE0FC01208386E490E0FC01C3
:1004E000108287E490E02AE0FC012083000085E38D
:1004F00090E0FC018081882F90E0880F991F892B64
:10050000B1F384E490E0FC01108285E390E022E006
:10051000FC0120830000DF91CF910895CF93DF93FA
:10052000CDB7DEB784E490E02AE0FC01208386E4C6
:1005300090E0FC01108287E490E02AE5FC01208332
:10054000000085E390E0FC018081882F90E0880F17
:10055000991F892BB1F384E490E0FC01108285E3BC
:1005600090E022E0FC0120830000DF91CF9108950C
:100570001F920F9200905F000F9211242F933F93D0
:100580004F935F936F937F938F939F93AF93BF939B
:10059000EF93FF93CF93DF93CDB7DEB78091040144
:1005A000909105010196909305018093040180913B
:1005B0003C0190913D01292F2F938F9380E091E092
:1005C000892F8F9380E091E08F938EE391E0892FC4
:1005D0008F938EE391E08F930E9464030F900F90AE
:1005E0000F900F900F900F908EE391E00E94A80063
:1005F0000000DF91CF91FF91EF91BF91AF919F915B
:100600008F917F916F915F914F913F912F910F90BB
:1006100000925F000F901F9018951F920F9200900C
:100620005F000F9211242F933F934F935F938F930B
:100630009F93EF93FF93CF93DF93CDB7DEB7809176
:100640003A0190913B01019690933B0180933A01CE
:1006500080913A0190913B01883E934021F5809131
:1006600004019091050199230CF4019695958795C5
:10067000AC0128E532E0429FC001439F900D529F9C
:10068000900D112490933D0180933C0110923B0109
:1006900010923A0182EB90E0FC0110821092050169
:1006A0001092040100000000DF91CF91FF91EF91C3
:1006B0009F918F915F914F913F912F910F90009259
:1006C0005F000F901F901895AEE0B0E0EAE6F3E00F
:1006D0000C9425060D891E8986E08C831A83098374
:1006E0008FEF9FE79E838D83AE01475E5F4F6F89DB
:1006F000788DCE0101960E948603EF81F885E00F88
:10070000F11F10822E96E4E00C944106ABE0B0E0BD
:10071000ECE8F3E00C9417066C017B018A01FC0104
:1007200017821682838181FFCCC1CE0101963C01E4
:10073000F6019381F70193FD859193FF81917F01EC
:10074000882309F4BAC1853239F493FD859193FF6A
:1007500081917F01853229F4B60190E00E947D05E8
:10076000E7CF912C212C312CFFE1F315D8F08B32FF
:1007700079F038F4803279F08332A1F4232D2061AE
:100780001DC08D3261F0803369F4232D216016C0C5
:10079000832D8260382EE32DE4603E2E2AC0F32D97
:1007A000F8601DC037FC2DC020ED280F2A3040F026
:1007B0008E32B9F436FC81C1232D2064322E19C04B
:1007C00036FE06C08AE0989E200D1124922E11C09C
:1007D000EAE02E9E200D1124222EF32DF0623F2EF2
:1007E00008C08C3621F4832D8068382E02C08836EC
:1007F00041F4F70193FD859193FF81917F01811170
:10080000B3CF982F9F7D9554933028F40C5F1F4FE2
:100810009FE399830DC0833631F0833771F08335C0
:1008200009F059C021C0F801808189830E5F1F4FF4
:1008300088248394912C530113C02801F2E04F0EB9
:10084000511CF801A080B18036FE03C0692D70E014
:1008500002C06FEF7FEFC5010E9472054C0182015B
:10086000F32DFF773F2E16C0280122E0420E511CC7
:10087000F801A080B18036FE03C0692D70E002C08F
:100880006FEF7FEFC5010E9467054C01F32DF06803
:100890003F2E820133FC1BC0822D90E08816990602
:1008A000B0F4B60180E290E00E947D052A94F4CF76
:1008B000F50137FC859137FE81915F01B60190E02B
:1008C0000E947D0521102A9421E0821A910881144A
:1008D000910471F7E8C0843611F0893641F5F801CA
:1008E00037FE07C060817181828193810C5F1F4F49
:1008F00008C060817181072E000C880B990B0E5F78
:100900001F4FF32DFF763F2E97FF09C090958095DE
:10091000709561957F4F8F4F9F4FF0683F2E2AE073
:1009200030E0A3010E94B905882E861845C085379E
:1009300031F4232D2F7EB22E2AE030E025C0932DF6
:10094000997FB92E8F36C1F018F4883579F0B5C08B
:10095000803719F0883721F0B0C0E92FE061BE2E52
:10096000B4FE0DC0FB2DF460BF2E09C034FE0AC0DA
:10097000292F2660B22E06C028E030E005C020E115
:1009800030E002C020E132E0F801B7FE07C060812C
:100990007181828193810C5F1F4F06C060817181DC
:1009A00080E090E00E5F1F4FA3010E94B905882EE2
:1009B0008618FB2DFF773F2E36FE0DC0232D2E7F90
:1009C000A22E891458F434FE0BC032FC09C0832DCA
:1009D0008E7EA82E05C0B82CA32C03C0B82C01C055
:1009E000B92CA4FE0FC0FE01E80DF11D80818033FB
:1009F00021F49A2D997EA92E09C0A2FE06C0B394B7
:100A0000B39404C08A2D867809F0B394A3FC11C076
:100A1000A0FE06C0B21488F4280C922C9B180EC0BD
:100A2000B21460F4B60180E290E00E947D05B394B8
:100A3000F7CFB21418F42B1802C0982C212CA4FE66
:100A400010C0B60180E390E00E947D05A2FE17C0B1
:100A5000A1FC03C088E790E002C088E590E0B60101
:100A60000CC08A2D867859F0A1FE02C08BE201C02D
:100A700080E2A7FC8DE2B60190E00E947D0589141A
:100A800038F4B60180E390E00E947D059A94F7CF98
:100A90008A94F301E80DF11D8081B60190E00E9477
:100AA0007D058110F5CF222009F442CEB60180E207
:100AB00090E00E947D052A94F6CFF6018681978109
:100AC00002C08FEF9FEF2B96E2E10C943306FC01FE
:100AD0000590615070400110D8F7809590958E0F69
:100AE0009F1F0895FC016150704001900110D8F7DC
:100AF000809590958E0F9F1F08950F931F93CF930E
:100B0000DF93FB01238121FD03C08FEF9FEF2CC0FA
:100B100022FF16C046815781248135814217530731
:100B200044F4A081B1819D012F5F3F4F3183208329
:100B30008C93268137812F5F3F4F3783268314C0E4
:100B40008B01EC01FB010084F185E02D0995892BD7
:100B5000E1F6D80116968D919C91179701961796FC
:100B60009C938E931697CE01DF91CF911F910F9199
:100B70000895FA01AA27283051F1203181F1E89433
:100B80006F936E7F6E5F7F4F8F4F9F4FAF4FB1E080
:100B90003ED0B4E03CD0670F781F891F9A1FA11D7B
:100BA000680F791F8A1F911DA11D6A0F711D811D7C
:100BB000911DA11D20D009F468943F912AE0269F41
:100BC00011243019305D3193DEF6CF010895462FA0
:100BD0004770405D4193B3E00FD0C9F7F6CF462F81
:100BE0004F70405D4A3318F0495D31FD40524193EA
:100BF00002D0A9F7EACFB4E0A695979587957795A7
:100C00006795BA95C9F700976105710508959B012D
:100C1000AC010A2E06945795479537952795BA95B6
:100C2000C9F7620F731F841F951FA01D08952F928F
:100C30003F924F925F926F927F928F929F92AF926C
:100C4000BF92CF92DF92EF92FF920F931F93CF93B9
:100C5000DF93CDB7DEB7CA1BDB0B0FB6F894DEBF50
:100C60000FBECDBF09942A88398848885F846E8476
:100C70007D848C849B84AA84B984C884DF80EE80C0
:100C8000FD800C811B81AA81B981CE0FD11D0FB6C9
:100C9000F894DEBF0FBECDBFED010895F894FFCFED
:040CA00025640000C7
:00000001FF
