:020000020000FC
:10004000125833453A21474F4F44456E67696E65F4
:100050006572696E670004E00EBF0FEF0DBF0FEF12
:100060000AB9E0E4B1E025E1F9990C943400059176
:10007000A1BDB2BD00BDFA9AF99AA1BDB2BDA395CA
:100080002A9511F00C943400E0E433E005911591C9
:10009000010F200F3A9511F00C9446002195209302
:1000A000000100E010E020E032E005911591010F21
:1000B000200F3A9511F00C945500219520930101E1
:1000C00000E010E020E036E005911591010F200FCF
:1000D0003A9511F00C946400219520930201E0E020
:1000E000F1E026E0F9990C947200E1BDF2BDF89AB6
:1000F00010B5010EE3952A9511F00C94720024E0DE
:10010000E1BDF2BDF89A10B5110EE3952A9511F0F4
:100110000C9480002BE0E1BDF2BDF89A10B5210EE1
:10012000E3952A9511F00C948B000194119421947D
:10013000F090000100910101109102010E94B800AD
:100140000E94D30020E02BB90E94D3000E94BD0082
:100150000E94D30020E02BB90E94D3000E94C2006D
:100160000E94D30020E02BB90E94D3000C949E0083
:100170000F1469F02FE42BB90895101661F02FE4E5
:100180002BB90895211659F02FE42BB908952FE3C8
:100190002BB90C94BC002FE32BB90C94C1002FE3B6
:1001A0002BB90C94C60080E298ECAAEF0000000086
:0E01B000AA95E1F79A95C9F78A95B1F70895D7
:00000001FF
