:100000000C942E000C9438000C9438000C9438009A
:100010000C9438000C9438000C9438000C94380080
:100020000C9438000C9438000C9438000C94380070
:100030000C9438000C9438000C9438000C94380060
:100040000C9438000C9438000C9438000C94380050
:100050000C9438000C9438000C94380011241FBE06
:10006000CFEFD4E0DEBFCDBF0E943A000C948A00EF
:100070000C940000CF93DF93CDB7DEB728970FB66F
:10008000F894DEBF0FBECDBF8AE290E02FEFFC01F7
:1000900020831F8218868BE290E03F812885232BE6
:1000A000FC01208319821A828AE090E09C838B8372
:1000B0001E821D8229C08A818F5F8A838D819E81E5
:1000C00001969E838D838BE290E039812A81232BD8
:1000D000FC0120838D819E8109976CF31A828981AE
:1000E000805F89838981803A09F419828BE290E0EC
:1000F00039812A81232BFC0120831E821D828B8162
:100100009C8101979C838B838B819C811816190697
:080110000CF3C8CFF894FFCFF7
:00000001FF
